:020000040800F2
:10000000A8E500205D0200089D8300088D6A0008B5
:10001000998300086D130008E1E600080000000065
:100020000000000000000000000000009D0100082A
:100030001F1F000800000000F9010008ADBB000808
:1000400077020008770200087702000877020008AC
:100050007702000877020008211F000877020008D5
:10006000770200082B1F0008351F000877020008E0
:10007000770200087702000877020008770200087C
:10008000770200087702000877020008770200086C
:100090007113000877020008770200083F1F00086C
:1000A000770200087702000877020008770200084C
:1000B000770200087702000877020008770200083C
:1000C000770200087702000877020008770200082C
:1000D00077020008770200087702000885C300084D
:1000E000770200087702000877020008770200080C
:1000F000770200087702000877020008FD14000864
:1001000077020008770200087702000877020008EB
:1001100077020008770200087702000877020008DB
:100120007702000879150008891500087702000891
:1001300077020008770200087702000877020008BB
:10014000811300087702000877020008B5870008CD
:1001500077020008211E0008311E0008C5C40008EF
:10016000770200087702000877020008770200088B
:1001700077020008770200087702000800000000FC
:100180007702000877020008DFF80CD000F0D2FBFD
:1001900000480047F53A0108A8E500202C4B1968F3
:1001A0000868B0E8F04F80F30988BFF36F8F4FF015
:1001B000000080F3118870470000000008480068C4
:1001C000006880F308884FF0000080F3148862B65E
:1001D00061B6BFF34F8FBFF36F8F00DF00BF00BF6B
:1001E00008ED00E0DFF80C00016841F470010160E7
:1001F000704700BF88ED00E0EFF30980BFF36F8F19
:10020000134B1A681EF0100F08BF20ED108A20E96A
:10021000F04F106009B44FF0500080F31188BFF325
:100220004F8FBFF36F8F16F009F94FF0000080F386
:10023000118809BC19680868B0E8F04F1EF0100F6B
:1002400008BFB0EC108A80F30988BFF36F8F704746
:10025000AC000020EFF3058070470000064880479F
:1002600006480047FEE7FEE7FEE7FEE7FEE7FEE79B
:10027000FEE7FEE7FEE7FEE78DBC00088901000807
:100280009FED1A1AF5EE000A40EE010ABDEEE00AF3
:10029000F5EEC00A10EE100AF1EE10FA38BF401E5B
:1002A00000EE100A1349F7EE001AB8EEC00A30EE5D
:1002B000C00ADFED0F0A20EE200AFCEEC00A10EEA5
:1002C000900AC0F3080000EE900A01EB8000F8EEFF
:1002D000600A90ED011A70EE600A90ED000A71EE6E
:1002E000E01A21EE800A00EE810A704783F9223E6F
:1002F00000000044C09B0108DFED190AB5EEC00AFA
:1003000060EE200ABDEEE01A11EE100AF1EE10FACE
:1003100038BF401E00EE100A1349F7EE001AB8EE7F
:10032000C00A30EEC00ADFED0F0A60EE200ABCEE14
:10033000E00A10EE100AC0F3080000EE100A01EB0C
:100340008000B8EE400A90ED011A70EEC00A90ED00
:10035000000A71EEE01A21EE800A00EE810A704771
:1003600083F9223E00000044C09B01082DE9F05FA4
:100370000546002092469B46884606468146402414
:100380001BE0284641464746224600F0CCF953463A
:100390005A46C01A914110D311461846224600F021
:1003A000B3F92D1A67EB01084F46224601200021C0
:1003B00000F0AAF917EB00094E41201EA4F1010438
:1003C000DFDC484631462A464346BDE8F09F40EA16
:1003D00001039B0703D009E008C9121F08C0042AC3
:1003E000FAD203E011F8013B00F8013B521EF9D2AA
:1003F0007047D2B201E000F8012B491EFBD27047D2
:100400000022F6E710B513460A4604461946FFF7E0
:10041000F0FF204610BD421C10F8011B0029FBD143
:10042000801A70472DE9FE4F804681EA0300C00F15
:100430000C46009021F0004123F00045B8EB02008B
:10044000A94105D24046214690461C460B4602462D
:1004500023F00040104347D0270DC7F30A00C3F331
:100460000A510290401A019040286BDAC3F313003E
:1004700040F4801B0098924620B10023D2EB030A7F
:1004800063EB0B0B01985946C0F14002504600F057
:100490003BF906460D4650465946019A00F053F97D
:1004A00010EB08006141002487EA115284EAE773E7
:1004B0001A4340D0009A62B3019A012A4FEA0752C8
:1004C00015DC001B61EB02014FF0004202EA07520B
:1004D000CDE90042001C41F5801132462B4600F068
:1004E00053F903B0BDE8F08F40462146F9E7001B01
:1004F00061EB0201001C41F5801300185B412018DC
:10050000A2F5001747EB030140EAD570B6196D411B
:1005100011E06D084FEA360645EAC0754FEA07520A
:10052000001B61EB0201001C41F5801149084FEAF4
:1005300030000019514132462B4603B0BDE8F04F60
:1005400000F013B90098012240000023D0EB020212
:1005500063EBE073009821464FEAE074B8EB0000CB
:1005600061EB0401E9E783F000435BE781F00041C0
:1005700058E72DE9FE4F81EA030404F0004421F01E
:10058000004100944FF0000B23F0004350EA0104B7
:100590005ED052EA03045BD0C3F30A54C1F30A5598
:1005A0002C44A4F2F3340194A0FB0254C1F31301D0
:1005B00041F48011C3F3130343F4801301FB02449D
:1005C00000FB034E840A970A44EA815447EA8357A2
:1005D000A4FB076802958D0A05FB07854FEA932C5B
:1005E00004FB0C542705029D4FEA065847EA1637CC
:1005F000B5EB08056EEB070C870E920E47EA8117E4
:1006000042EA8312A7FB0201B6EB0B0164EB000484
:100610002B0D43EA0C335E1844EB1C50DA4651466E
:10062000E7FB0201C5F313044FEA0B3343EA14530B
:100630004FEA0432019C43EA0603A4F10C0402943D
:10064000009CCDE900B400F09FF803B0BDE8F08F46
:1006500000200146F9E700F0004230F000400AD0E7
:10066000C10D01F56071C0F3160042EA0151C208E4
:1006700040071143704700200146704730B5041E03
:1006800071F1000404DB4FF00044404264EB0101CF
:10069000141E73F1000405DB1C464FF00043524268
:1006A00063EB04038B4208BF824230BD30B5041EA9
:1006B00071F1000404DB4FF00044404264EB01019F
:1006C000141E73F1000405DB1C464FF00043524238
:1006D00063EB0403994208BF904230BD30B50B462E
:1006E000014600202022012409E021FA02F59D4262
:1006F00005D303FA02F5491B04FA02F52844151E36
:10070000A2F10102F1DC30BD202A04DB203A00FA1C
:1007100002F1002070479140C2F1200320FA03F358
:10072000194390407047202A04DB203A21FA02F056
:100730000021704721FA02F3D040C2F1200291401B
:10074000084319467047202A06DBCB17203A41FAA6
:1007500002F043EAE07306E041FA02F3D040C2F14E
:100760002002914008431946704710B5141E73F1DA
:10077000000408DA401C41F1000192185B411A4361
:1007800001D120F0010010BD2DE9F04D92469B46AD
:1007900011B1B1FA81F202E0B0FA80F22032904653
:1007A000FFF7B2FF04460F4640EA0A0041EA0B0198
:1007B00053465A46084313D0114653EA010019D054
:1007C000C8F140025046FFF7AEFF05460E465046C0
:1007D00059464246FFF798FF084305D0012004E040
:1007E00020463946BDE8F08D0020054346EAE07614
:1007F0002C4337430A986305E40AA0EB0800002263
:10080000FD0A44EA47540A3002D500200146E9E7D0
:10081000010510196941DDE9084500196941BDE884
:10082000F04DA2E72DE9F04D81EA030404F0004BFE
:1008300021F0004514464FF0000A23F0004150EA31
:10084000050220D054EA01021DD0C5F30A57024622
:10085000C5F31303C1F31300C1F30A5640F4801526
:1008600043F48013A7EB0608101BD64608F2FD38A8
:1008700073EB050002D308F1010801E092185B4117
:10088000B8F1000F03DA00200146BDE8F08D00202A
:100890004FF48011064684460EE0171B73EB0507E4
:1008A00005D3121B63EB050306434CEA010C490810
:1008B0004FEA300092185B4150EA0107EDD152EA4D
:1008C000030012D082EA040083EA0501084305D040
:1008D000101BAB4106D20122002306E000224FF09C
:1008E000004302E06FF0010253101AEB06004CEBDC
:1008F000085110EB0A0041EB0B01BDE8F04DFFF78A
:1009000034BFC1F30A52C1F3130140F2FF3341F483
:1009100080119A4202DA00200146704740F23343C8
:100920009A42A2F2334202DC5242FFF7FCBEFFF7CA
:10093000EBBE0000064C074D06E0E06840F0010306
:1009400094E8070098471034AC42F6D3FFF720FC38
:1009500030A4010850A4010870B58C1810F8015B90
:1009600015F0070301D110F8013B2A1106D110F848
:10097000012B03E010F8016B01F8016B5B1EF9D14C
:100980002B0705D40023521E0DD401F8013BFAE7D2
:1009900010F8013BCB1A921C03E013F8015B01F83D
:1009A000015B521EF9D5A142D8D3002070BD0000D2
:1009B00055494A6822F440324A604A6843681A43FB
:1009C0004A600268526822F4807203685A600268C2
:1009D0005368026943EA022203685A600268526857
:1009E00022F0407203685A600268526883681A43B2
:1009F00003685A600268926822F4006203689A6091
:100A000002689268C3681A4303689A603F4B826A1F
:100A10009A4218D00268926822F0706203689A6065
:100A200002689268836A1A4303689A60026892684F
:100A300022F0405203689A6002689268C36A1A43BF
:100A400003689A600BE00268926822F070620368A3
:100A50009A600268926822F0405203689A600268C5
:100A6000926822F0020203689A6002689368027E2C
:100A700043EA420203689A602022125CA2B1026833
:100A8000526842F4006203685A600268526822F4B5
:100A9000604203685A6002685368426A521E43EA21
:100AA000423203685A6005E00268526822F400622C
:100AB00003685A600268D26A22F470020368DA623C
:100AC0000268D36A828B521E43EA02520368DA62DA
:100AD0000268926822F4007203689A600268936860
:100AE00090F8302043EA422203689A6002689268D4
:100AF00022F4806203689A6002689368426943EA5C
:100B0000822203689A607047002301400100000FB1
:100B100010B52DED028BB0EE408AB0EE480A0DF014
:100B200027FEBDEC028B10BD10B52DED028BB0EE93
:100B3000408AF0EE608AF0EE680AB0EE480A0DF0E6
:100B4000ADFEBDEC028B10BD10B52DED028BB0EEED
:100B5000408AB0EE480AFFF793FBBDEC028B10BD54
:100B6000F0EE400AF5EEC00AF1EE10FA02DDB0EE4A
:100B7000600A7047B1EE600AFBE7000018B19FED14
:100B8000020A80ED000A70470000000018B1B3EEC1
:100B9000060A80ED000A704770B52DED0C8B84B00D
:100BA00006460C4615469FED990AF0EE408A9FEDE9
:100BB000970AB0EE409A9FED950AF0EE40BA9FED8D
:100BC000930AF0EE409A9FED910AB0EE40AA0EB162
:100BD00004B11DB904B0BDEC0C8B70BD8C48FFF79F
:100BE000CDFF8C48FFF7D2FF8A48D0ED000A9FED79
:100BF0008A1A60EE810AB0EE600A00F02DF9F0EE7C
:100C0000408A28EEA80AF0EE408A8248D0ED000A19
:100C1000B0EE001A60EE810A9FED7F1A60EE810A45
:100C2000B0EE600A00F018F9B0EE409A29EE090A19
:100C3000B0EE409ADFED790AB7EE000A00EEA80A9E
:100C4000DFED770A00EEC90ADFED760A20EE200A12
:100C5000754880ED000A6E4890ED000ADFED730ADA
:100C600080EE201AB7EE000A31EE000A20EE000AEC
:100C70006D48D0ED000A80EE801A6D4880ED001AB4
:100C800094ED000AB5EEC00AF1EE10FA0DD194ED24
:100C9000010AB5EEC00AF1EE10FA06D194ED020A8F
:100CA000B5EEC00AF1EE10FA46D09FED580AB0EE4C
:100CB000408A0020019002900390D4ED000A60EE7B
:100CC000A00A94ED011AD4ED011A41EE210A94ED27
:100CD000021AD4ED021A41EE210AB0EE600A00F0C9
:100CE000A9F8B0EE408A94ED000A20EE080A8DEDD6
:100CF000010A94ED010A20EE080A8DED020A94ED36
:100D0000020A20EE080A8DED030ADDED010AF1EE7C
:100D1000600AB0EE600AFFF7FBFEF0EE409A9DED30
:100D2000031AF0EE410A9DED021AB0EE410AFFF7F8
:100D3000FBFEB0EE40AA07E09FED340AF0EE409AC9
:100D40009FED320AB0EE40AA95ED000AB5EEC00A5A
:100D5000F1EE10FA0DD195ED010AB5EEC00AF1EEF3
:100D600010FA06D195ED020AB5EEC00AF1EE10FABE
:100D70003CD0B0EE690A00F06FF8B0EE408AB0EEF9
:100D8000690AFFF7E1FEB0EE40DAB0EE4A0A00F081
:100D900063F8F0EE40AAB0EE4A0AFFF7D5FEB0EED7
:100DA00040BA28EE2A0AD5ED010A20EE200AD5ED38
:100DB000000A0DEE200A68EE0B0A95ED021A00EE0D
:100DC000810AB0EE40CA95ED010A20EE0B0AD5ED7E
:100DD000020A0AEEE00AF0EE40CAF0EE6C0AB0EE4B
:100DE0004C0AFFF7A1FEF0EE40BA03E09FED070AC0
:100DF000F0EE40BAB0EE4A1AF0EE690AB0EE6B0AB5
:100E000030460EF027FD00BFE4E6000000000000C1
:100E1000FC0400200005002035FA8E3CC1BFAD3B2C
:100E20009DF8C5362F7C1C4104050020506CC24A39
:100E30000805002010B52DED028BB0EE408AB0EE13
:100E4000480A0DF05DFEB7EE001AC1EE000AB0EEE2
:100E5000600ABDEC028B10BD10B52DED028BB0EE1B
:100E6000408AB0EE480AFFF747FABDEC028B10BD8E
:100E70002DE9F0412DED028B9AB00546B0EE408A87
:100E80000E46174698460020179018901990149017
:100E9000159016904DB146B13FB1B8F1000F04D096
:100EA000B5EEC08AF1EE10FA05D100201AB0BDEC03
:100EB000028BBDE8F08196ED000A8DED170A96EDE4
:100EC000010A8DED180A96ED020A8DED190A97EDCB
:100ED000000A8DED140A97ED010A8DED150A97EDC4
:100EE000020A8DED160A17AA14A928460EF0E6FA92
:100EF000402104A8FFF784FA00200090019002909E
:100F00000390002417A904A814F036FE00BF30E0B7
:100F100004A800EB041090ED000AD5ED000A20EEC5
:100F2000200A04A800EB0410D0ED010A95ED011A87
:100F300000EE810A04A800EB0410D0ED020A95ED42
:100F4000021A00EE810A04A800EB0410D0ED030A97
:100F500095ED031A00EE810A20EE080AF0EE000A71
:100F600080EE201A684600EB840080ED001A601CB9
:100F7000C4B2042CCCDB002410E005EB840090ED1F
:100F8000000A684600EB8400D0ED000A30EE200A2B
:100F900005EB840080ED000A601CC4B2042CECDB7D
:100FA000284613F0CBFD012080E7000010B5012298
:100FB0001021024802F0E2FC10BD000000000240D7
:100FC00010B500221021024802F0D8FC10BD00002C
:100FD000000002407047000010B50122114602488F
:100FE00002F0CCFC10BD00000004024010B500224D
:100FF0000121024802F0C2FC10BD000000040240C2
:1010000010B543781B021BB20478234300EE103A5C
:10101000B8EEC01A1C4BD3ED001A21EE211A81ED57
:10102000001AC3781B021BB28478234300EE103AE7
:10103000B8EEC01A144BD3ED001A21EE211A81ED3F
:10104000011A43791B021BB20479234300EE103AC4
:10105000B8EEC01A0C4BD3ED001A21EE211A81ED27
:10106000021A037A1B04C47943EA042384792343D4
:1010700000EE903AB8EE601ADFED041A21EE211A64
:1010800082ED001A10BD0000CC04002000401C427C
:10109000704710B50446204612F0E8FE10BD10B5AA
:1010A0000446204610F08EFB10BD0000427812026C
:1010B00012B203781A4300EE102AF8EEC00A144A5E
:1010C00092ED001A60EE810AC1ED000AC2781202A8
:1010D00012B283781A4300EE102AF8EEC00A0C4AC6
:1010E00092ED001A60EE810AC1ED010A4279120206
:1010F00012B203791A4300EE102AF8EEC00A044A2D
:1011000092ED001A60EE810AC1ED020A70470000FC
:10111000D004002010B50024FFF75CFFFFF7B8FFF4
:101120000EF00AFD10B144F0800402E00EF06AFCFB
:1011300004430EF0F9FE10B144F0400402E00EF05A
:1011400079FE0443204610BD2DE9FC4105460E46BC
:101150001746002000900190FFF732FF922000F028
:10116000D1F806226946122000F0ACF8FFF71EFF06
:101170009DF80100000200B29DF8001040EA010451
:1011800000EE104AB8EEC00A4C48D0ED000A20EE3E
:10119000200A86ED000A9DF80300000200B29DF8C7
:1011A000021040EA010400EE104AB8EEC00A4348BB
:1011B000D0ED000A20EE200A86ED010A9DF8050018
:1011C000000200B29DF8041040EA010400EE104A4B
:1011D000B8EEC00A3948D0ED000A20EE200A86EDAC
:1011E000020AFFF703FF08226946002000F06AF8B0
:1011F000FFF7F2FE9DF800000F2838D19DF803009C
:10120000000200B29DF8021040EA010400EE104A0C
:10121000B8EEC00A2A48D0ED000A20EE200A85ED7B
:10122000000A9DF80500000200B29DF8041040EA93
:10123000010400EE104AB8EEC00A2148D0ED000AC1
:1012400020EE200A85ED010A9DF80700000200B299
:101250009DF8061040EA010400EE104AB8EEC00AFC
:101260001748D0ED000A20EE200A85ED020AFFF7AC
:10127000A7FEA22000F046F802226946222000F0D4
:1012800021F8FFF793FE9DF80000C0009DF80110C3
:1012900040EA6114B4F5806F02DBA4F5006004B28B
:1012A00000EE104AF8EEC00AB4EE001AB3EE070AD8
:1012B00000EE810A87ED000ABDE8FC81CC04002025
:1012C000D004002070B506460C46154646F0800056
:1012D00000F018F806E0552000F014F82070641CA7
:1012E000681EC5B2002DF6D170BD70B504460D461E
:1012F00044F0800000F006F8552000F003F8287054
:1013000070BD000001B582B04FF47A70012301AACC
:1013100002A90090024804F005FD9DF804000EBDEE
:101320002C0E002010B502461378DB00547843EAF7
:101330006410B0F5806F02DBA0F5006318B200EE18
:10134000100AF8EEC00AB4EE001AB3EE070A00EE77
:10135000810A81ED000A10BD70B505460C4628468D
:10136000FFF7D0FF2046FFF7CDFF70BD00BFFEE7BF
:1013700010B5024801F0B9FB10BD0000A80500201F
:1013800010B5024801F0B1FB10BD0000D0050020EF
:10139000F8B507460C4615461E464FF400700D4939
:1013A000086000208860C86008200861380A0A497F
:1013B00008704F70200A8870CC70280A08714D712F
:1013C000300A8871CE716B460A460249034801F023
:1013D00090F9F8BDE88F0020B4020020A805002095
:1013E00008B54FF4E0600C49086000208860C860D0
:1013F0000820086100200949087048708870C8708A
:10140000087148718871C8716B460A4602490448E0
:1014100001F06FF908BD0000E88F0020B402002041
:10142000A8050020F8B507460C4615461E4640F2B2
:10143000FF100D49086000208860C860082008611E
:10144000380A0A4908704F70200A8870CC70280A40
:1014500008714D71300A8871CE716B460A46024997
:10146000034801F046F9F8BDD08F0020AC020020FF
:10147000D00500200346042B15D007DC7BB1012BDF
:101480000ED0022B0DD0032B12D10BE0202B0BD052
:10149000212B0AD0222B09D0232B09D107E008E009
:1014A00007E006E005E004E003E002E001E000E020
:1014B00000BF00BF002070470020704710B5002219
:1014C000044905480BF0D1F9044903480BF0C6F96B
:1014D000002010BD002400205C130020001C002010
:1014E00070B504460D46214603480BF0B7F9024893
:1014F0000BF090F9002070BD5C1300201B48406881
:1015000000F0006080B31A48406B006819498842B7
:1015100005D94FF0006017494C3908601CE01448A9
:10152000406B00681149B831884205D94FF000601E
:101530001049503908600FE00D48406B00680B49B6
:101540005831884204D94FF000600849C86003E070
:101550004FF000600549886005480068006840F465
:10156000007003490968086070470000006002408D
:10157000F40C00205864024010B5024801F01CFE33
:1015800010BD00009C12002010B5FE48C06C006821
:10159000FD49884276D9FC4854380068F949C96C3D
:1015A0000968FA4A914201D1202169E0F549C96CE4
:1015B0000968F54A483A914201D1202160E0F14999
:1015C000C96C0968F14A6032914201D1202157E08B
:1015D000EC49C96C0968EC4A1832914201D12021CA
:1015E0004EE0E849C96C0968E84A1832914201D1D5
:1015F000C91445E0E349C96C0968E34A303A9142AD
:1016000001D1C9143CE0DF49C96C0968DF4A78326E
:10161000914201D1C91433E0DA49C96C0968DA4A48
:101620003032914201D1C9142AE0D649C96C096807
:10163000D64A3032914202D14FF4001120E0D14914
:10164000C96C0968D04A183A914202D14FF400118E
:1016500016E0CC49C96C0968CC4A9032914202D15B
:101660004FF400110CE0C749C96C0968C64A4832FA
:10167000914203D14FF4001102E003E04FF000610A
:10168000084070E1BF48C06C0068C049A83188427A
:1016900076D9BD4858380068BA49C96C0968BB4A50
:1016A000914201D1202169E0B649C96C0968B64A66
:1016B000483A914201D1202160E0B249C96C0968E1
:1016C000B24A6032914201D1202157E0AD49C96C44
:1016D0000968AD4A1832914201D120214EE0A94952
:1016E000C96C0968A94A1832914201D1C91445E070
:1016F000A449C96C0968A44A303A914201D1C9147D
:101700003CE0A049C96C0968A04A7832914201D1F5
:10171000C91433E09B49C96C09689B4A3032914235
:1017200001D1C9142AE09749C96C0968974A303237
:10173000914202D14FF4001120E09249C96C09682E
:10174000914A183A914202D14FF4001116E08D49A6
:10175000C96C09688D4A9032914202D14FF4001150
:101760000CE08849C96C0968874A4832914203D124
:101770004FF4001102E003E04FF000610840F2E096
:101780008048C06C006881494831884276D97F48DA
:10179000103840687B49C96C09687C4A914201D184
:1017A000202169E07749C96C0968774A483A914233
:1017B00001D1202160E07349C96C0968734A603225
:1017C000914201D1202157E06E49C96C09686E4AE7
:1017D0001832914201D120214EE06A49C96C096852
:1017E0006A4A1832914201D1C91445E06549C96C71
:1017F0000968654A303A914201D1C9143CE0614917
:10180000C96C0968614A7832914201D1C91433E048
:101810005C49C96C09685C4A3032914201D1C914F3
:101820002AE05849C96C0968584A3032914202D1BD
:101830004FF4001120E05349C96C0968524A183A24
:10184000914202D14FF4001116E04E49C96C09686B
:101850004E4A9032914202D14FF400110CE04949B6
:10186000C96C0968484A4832914203D14FF40011CB
:1018700002E003E04FF00061084074E04348103894
:1018800000684049C96C0968404A914201D1202151
:1018900068E03C49C96C09683B4A483A914201D129
:1018A00020215FE03749C96C0968384A60329142AB
:1018B00001D1202156E03349C96C0968324A1832F7
:1018C000914201D120214DE02E49C96C09682F4A6F
:1018D0001832914201D1C91444E02A49C96C0968FF
:1018E000294A303A914201D1C9143BE02549C96CDB
:1018F0000968264A7832914201D1C91432E021495F
:10190000C96C0968204A3032914201D1C91429E0DA
:101910001C49C96C09681D4A3032914202D14FF40A
:1019200000111FE01749C96C0968174A183A91421B
:1019300002D14FF4001115E01249C96C0968134A2D
:101940009032914202D14FF400110BE00D49C96C65
:1019500009680D4A4832914202D14FF4001101E06A
:101960004FF00061084000286FD00648C06C006846
:10197000054988427BD90348C06C00680349884206
:1019800008D105E02C0E002058640240106002408F
:10199000202068E0FE48C06C0068FE49884201D102
:1019A000202060E0FA48C06C0068FB49884201D101
:1019B000202058E0F648C06C0068F6496031884243
:1019C00001D120204FE0F248C06C0068F24948394C
:1019D000884201D1C01446E0ED48C06C0068ED4972
:1019E0001831884201D1C0143DE0E948C06C00685C
:1019F000E9491831884201D1C01434E0E448C06C90
:101A00000068E4497831884201D1C0142BE0E048F5
:101A1000C06C0068E0493039884202D14FF40010B0
:101A200021E0DB48C06C0068DA493031884202D1DD
:101A30004FF4001017E0D648C06C0068D64930312A
:101A4000884204D14FF400100DE0DFE10FE0D048F0
:101A5000C06C0068CF499031884202D14FF4001029
:101A600001E04FF00060CB49091F08606AE1C848F7
:101A7000C06C0068C8494831884274D9C448C06CF9
:101A80000068C5496039884201D1202066E0C0481D
:101A9000C06C0068BF49884201D120205EE0BC488C
:101AA000C06C0068BC49884201D1202056E0B8488B
:101AB000C06C0068B7496031884201D120204DE0F8
:101AC000B348C06C0068B4494839884201D1C01499
:101AD00044E0AF48C06C0068AE491831884201D17B
:101AE000C0143BE0AA48C06C0068AB49183188427A
:101AF00001D1C01432E0A648C06C0068A549783115
:101B0000884201D1C01429E0A148C06C0068A249F4
:101B10003039884202D14FF400101FE09C48C06C5D
:101B200000689C493031884202D14FF4001015E022
:101B30009748C06C006898493031884202D14FF410
:101B400000100BE09248C06C0068924990318842C6
:101B500002D14FF4001001E04FF000608D490839C8
:101B60000860EFE0FFE78A48C06C00688A491839CE
:101B7000884274D98648C06C0068874960398842B9
:101B800001D1202066E08248C06C0068814988420B
:101B900001D120205EE07E48C06C00687E4988420A
:101BA00001D1202056E07A48C06C00687949603144
:101BB000884201D120204DE07548C06C006876490C
:101BC0004839884201D1C01444E07148C06C0068B3
:101BD00070491831884201D1C0143BE06C48C06C98
:101BE00000686D491831884201D1C01432E068485C
:101BF000C06C006867497831884201D1C01429E07F
:101C00006348C06C006864493039884202D14FF49F
:101C100000101FE05E48C06C00685E4930318842A9
:101C200002D14FF4001015E05948C06C00685A49C1
:101C30003031884202D14FF400100BE05448C06CA0
:101C4000006854499031884202D14FF4001001E0FD
:101C50004FF0006050497039C86073E0FFE74C48AE
:101C6000C06C00684C496039884201D1202066E090
:101C70004748C06C00684749884201D120205EE097
:101C80004348C06C00684449884201D1202056E096
:101C90003F48C06C00683F496031884201D1202034
:101CA0004DE03B48C06C00683B494839884201D14F
:101CB000C01444E03648C06C006836491831884288
:101CC00001D1C0143BE03248C06C00683249183181
:101CD000884201D1C01432E02D48C06C00682D4903
:101CE0007831884201D1C01429E02948C06C0068CD
:101CF00029493039884202D14FF400101FE02448AE
:101D0000C06C006823493031884202D14FF4001082
:101D100015E01F48C06C00681F493031884202D16D
:101D20004FF400100BE01A48C06C0068194990315C
:101D3000884202D14FF4001001E04FF000601649D4
:101D4000703988601548007800F0020078B11348B7
:101D5000007820F00200114908700846007840F031
:101D600004000870012211460D4801F007FE0D48DD
:101D7000007800F00200E0B10A48007820F002008C
:101D8000084908700846007840F0040008700BE02D
:101D90002C0E00201064024070600240A903002055
:101DA00000040240AA03002001221021184801F07B
:101DB000E5FD1848007800F0020078B11548007879
:101DC00020F00200134908700846007840F0040033
:101DD0000870012210210E4801F0D0FD11F030FBF7
:101DE0000D48007800F0040080B10B48007820F026
:101DF0000400094908700846007840F0080008709F
:101E00000648006840F001000449086010BD000069
:101E100000000240AB030020A9030020103C014059
:101E200010B5024801F0C8F910BD0000FC120020F6
:101E300010B5024801F0C0F910BD0000DC1100200F
:101E40000146087810381823B0FBF3F20848805C8C
:101E5000C865032A05D908686FF30900001D886565
:101E600003E008686FF309008865886D704700001B
:101E7000E0740108014600208A6A8B69CBB932B14F
:101E8000012A0DD0022A03D0032A10D10EE000BF90
:101E9000CB6A03F08073B3F1807F00D1012007E0AB
:101EA000CB6AB3F1C07F00D1012001E000E000BFA8
:101EB00034E08B69B3F5005F1AD132B1012A07D043
:101EC000022A03D0032A11D10AE000BF01200EE04C
:101ED000CB6A03F08073B3F1807F00D1012006E06C
:101EE000CB6AB3F1C07F00D1012000E000BF15E054
:101EF00032B1012A05D0022A04D0032A0CD103E012
:101F000000BF00BF012008E0CB6A03F08073B3F18B
:101F1000807F00D1012000E000BF00BF7047704704
:101F200010B5012001F014FC10BD10B5082001F01F
:101F30000FFC10BD10B5102001F00AFC10BD10B54B
:101F4000202001F005FC10BD7047000010B50022F4
:101F500001B909E0012901D10A0205E0022901D1F4
:101F60000A0201E04FF440720E4B1B6823F44073E9
:101F70000C4C236023461B681343236023461B68D5
:101F800023F0F803236023461B68022444EAC004BC
:101F90002343044C236023461B6843F480332360AF
:101FA00010BD0000103C02401C48006800F40070A6
:101FB000B0B11A48006820F400701849086000BFEA
:101FC0000846006840F4006008600846006820F495
:101FD0000060086000BF0846006840F400700860B8
:101FE0000E48006800F48060B0B10C48006820F42E
:101FF00080600A49086000BF0846006840F48050CD
:1020000008600846006820F48050086000BF084659
:10201000006840F48060086070470000003C0240A7
:102020000A4A126822F44072084B1A601A46126873
:1020300042F004021A601A4612684FF4803343EAF1
:1020400000231A43014B1A6070470000103C024005
:10205000074A126822F44072054B1A601A46126849
:102060001A601A46126842F001021A600170704745
:10207000103C024010B50949096821F44071074C31
:1020800021602146096841F44071216021460968B8
:1020900041F0010121600260436010BD103C02402C
:1020A000084A126822F44072064B1A601A461268F7
:1020B00042F480721A601A46126842F001021A60F5
:1020C00001807047103C0240084A126822F44072B6
:1020D000064B1A601A46126842F400721A601A46D9
:1020E000126842F001021A6001607047103C024021
:1020F0002348006800F0100040B12248C06940F059
:1021000010002049C86110201D4908601C48006863
:1021100000F0200040B11B48C06940F00800194998
:10212000C8612020164908601548006800F040008A
:1021300040B11448C06940F004001249C861402011
:102140000F4908600E48006800F0800040B10D485B
:10215000C06940F002000B49C8618020084908604E
:102160000748006800F0020040B10648C06940F02E
:1021700020000449C861022001490860704700003E
:102180000C3C0240002C002070B5044600250020C5
:102190001449C86101F0F8FB054609E0601C38B13C
:1021A00024B101F0F1FB401BA04201D9032070BD16
:1021B0000D48006800F480300028EFD10A4800681C
:1021C00000F0010010B101200749086006480068CE
:1021D00000F0F20018B1FFF78BFF0120E7E70020C5
:1021E000E5E70000002C00200C3C024070B50A48D6
:1021F0000468001D0568001D0668344454B10822B7
:102200000649204605F030FA0422044910312846D8
:1022100005F02AFA70BD0000107AFF1F720000203E
:1022200038B502460020009000BF92F83C0001281B
:1022300001D1022038BD012082F83C0000BF0868AF
:10224000092816D91068C0680C780A3C04EB4405CC
:102250000724AC40A0431468E0600C780A3C04EB0F
:1022600044048868A0401468E46820431468E0606F
:1022700013E0106800690C7804EB44050724AC40B7
:10228000A043146820610C7804EB44048868A040E3
:10229000146824692043146820614868072817D20D
:1022A0001068406B0C79641E04EB84051F24AC405D
:1022B000A04314686063088880B20C79641E04EB44
:1022C0008404A0401468646B20431468606331E0A8
:1022D00048680D2817D21068006B0C79E41F04EBD6
:1022E00084051F24AC40A04314682063088880B292
:1022F0000C79E41F04EB8404A0401468246B204391
:102300001468206316E01068C06A0C790D3C04EB79
:1023100084051F24AC40A0431468E062088880B2A2
:102320000C790D3C04EB8404A0401468E46A20435B
:102330001468E062194B1A4C1068A04206D1086874
:10234000122803D1586840F480005860144C10687B
:10235000A0421CD10868102802D00868112816D1A4
:10236000586840F400005860086810280FD10D48E4
:1023700000680D4CB0FBF4F000EB800040000090D2
:1023800002E00098401E009000980028F9D100BF9C
:10239000002082F83C0000BF00BF4BE70023014053
:1023A00000200140A800002040420F0001460868BC
:1023B000C06C704770B5044600250CB9012070BD93
:1023C0001549A06A884200D000BF206C30B9204671
:1023D00000F024F80020606484F83C00206C00F0D9
:1023E000100088B9206C20F4885040F0020020646E
:1023F0002046FEF7DDFA00206064206C20F0020029
:1024000040F00100206400E0012500BF002084F8B6
:102410003C0000BF2846D2E70100000F10B586B08F
:102420000446142101A8FDF7EBFF234920688842E8
:102430000FD100BF002000902048006840F4807059
:102440001E4908600846006800F48070009000BFD4
:102450002FE01B49206888422BD100BF002000904C
:102460001648006840F48060144908600846006817
:1024700000F48060009000BF00BF00BF002000900B
:102480000E481438006840F020000C4914390860E8
:102490000846006800F02000009000BF00BF08154B
:1024A0000190032002900020039001A9054801F04B
:1024B0005DF906B010BD0000002001404438024024
:1024C000002201400014024070B504460D4600266B
:1024D0002068806800F48060B0F5806F11D12068BA
:1024E000806800F48070B0F5807F0AD1206C40F0E5
:1024F0002000206400BF002084F83C0000BF0120C1
:1025000070BD01F041FA064612E0681C80B125B1A9
:1025100001F03AFA801BA8420AD9206C40F004006E
:10252000206400BF002084F83C0000BF0320E7E7E0
:102530002068006800F002000228E6D16FF0120067
:1025400021680860206C40F4007020642068806876
:1025500000F04050B8B9207EA8B92068C06A00F4E5
:10256000700020B12068806800F4806058B9206C49
:1025700020F480702064206C00F4805018B9206C26
:1025800040F0010020640020BAE7000008B50146D1
:102590000020009000BF91F83C00012801D10220EA
:1025A00008BD012081F83C0000BF0868806800F089
:1025B0000100A0B90868806840F001000B689860CD
:1025C0003B4800683B4BB0FBF3F000EB4000009051
:1025D00002E00098401E009000980028F9D1086899
:1025E000806800F0010000285FD0086C40F20163B1
:1025F000984340F4807008640868406800F4806084
:1026000028B1086C20F4005040F480500864086C35
:1026100000F48050B0F5805F04D1486C20F00600D3
:10262000486401E00020486400BF002081F83C00BD
:1026300000BF214A6FF022000B681860506800F05C
:102640001F0018BB1D4B0868984213D01C4B08682C
:10265000984204D1101D006800F01F0050B1194BC2
:102660000868984221D11448001D006800F01F003E
:1026700010281AD20868806800F0405028B908680D
:10268000806840F080400B6898600EE00B4B086853
:1026900098420AD10868806800F0405028B908685C
:1026A000806840F080400B689860002078E7000068
:1026B000A800002040420F000023014000200140FC
:1026C000002101400022014010B5024692F820305E
:1026D000012B01D0022B06D1106840690843146811
:1026E0006061002010BD506A40F4802050620120DB
:1026F000F8E7F0B504460D461E4694F820702068B1
:102700008368A86800B900E000BF012F01D0022F44
:102710007CD103F0806030B903F0006018B903F099
:102720008050002873D0C3F30161022905D9606A83
:1027300040F4000060620120F0BD0120884030605C
:10274000A86860B9B5F800C0E86840EA4C5C206849
:1027500000F5C07000EB0110C0F800C00FE0D5E933
:1027600001C040EACC00D5F80CC040EA0C00D4F817
:1027700000C00CF5C07C0CEB011CCCF80000D5F8B7
:1027800010C0206800F5C07000EB0110C0F804C054
:10279000287D01280ED1206800F5C07000EB0110E3
:1027A000406840F4807C206800F5C07000EB0110A8
:1027B000C0F804C0D079000692F806C040EA0C4088
:1027C00092F805C040EA0C2C10794CEA000C206805
:1027D00000F5C07000EB0110C0F80CC0D078000606
:1027E00092F802C040EA0C4092F801C040EA0C2086
:1027F00092F800C040EA0C00D4F800C00CF5C07C90
:102800000CEB011CCCF80800206801E016E00FE09A
:1028100000F5C07000EB0110006840F0010C20686A
:1028200000F5C07000EB0110C0F800C0002083E785
:10283000606A40F40010606201207DE7606A40F445
:1028400080206062012077E7F0B504460A462168DF
:1028500094F82050012D01D0022D7ED1424901F57E
:102860000071086840F001000860086820F47C509E
:1028700008600868566A40EA06200860107D00F08B
:102880001F06012000FA06F3C8699843C861A1F544
:102890000071D069C8B9D1F80C029843C1F80C0294
:1028A000908880B2968940EA064601F51070576913
:1028B00040F83760108880B2168940EA064601F574
:1028C0001070576900EBC7004660D069012819D124
:1028D000D1F80C021843C1F80C02908880B2168817
:1028E00040EA064601F51070576940F83760908954
:1028F00080B2168940EA064601F51070576900EB70
:10290000C7004660906928B9D1F804029843C1F81D
:10291000040204E0D1F804021843C1F8040210696B
:1029200028B9D1F814029843C1F8140204E0D1F890
:1029300014021843C1F81402106A012804D1D1F816
:102940001C021843C1F81C02D1F8000220F001005B
:10295000C1F800020020F0BDFFE7606A40F480206B
:1029600060620120F7E7000000640040704770B526
:10297000044694F82050012D01D0022D7CD151B98C
:102980002068C06800F0030080B9606A40F400105D
:102990006062012070BD2068006900F0030028B962
:1029A000606A40F4001060620120F3E7206800F5DF
:1029B000D87000EB0110006800F00400906090688F
:1029C00040B9206800F5D87000EB01100068400D98
:1029D000106007E0206800F5D87000EB0110006877
:1029E000C0085060206800F5D87000EB0110006846
:1029F00000F002004008D060206800F5D87000EBBD
:102A00000110406800F00F001061206800F5D870D8
:102A100000EB0110406800F47F40000A90612068DC
:102A200000F5D87000EB01104068000C5061206880
:102A300000F5D87000EB011080681870206800F570
:102A4000D87000EB0110806800F47F40000A5870D5
:102A5000206800F5D87000EB0110806800F47F005A
:102A6000000C9870206800F5D87000EB01108068A9
:102A7000000ED870206800E031E000F5D87000EB5F
:102A80000110C0681871206800F5D87000EB0110C3
:102A9000C06800F47F40000A5871206800F5D870C3
:102AA00000EB0110C06800F47F00000C98712068F2
:102AB00000F5D87000EB0110C068000ED87131B974
:102AC0002068C06840F020002668F06005E02068BB
:102AD000006940F020002668306100205AE7606AF3
:102AE00040F480206062012054E72DE9F05F044645
:102AF0000025206846692068D0F80490206887681F
:102B00002068D0F80CA02068D0F810B02068D0F869
:102B1000188006F00100002855D007F00100C0B170
:102B200001202168886007F0020018B1204600F0FB
:102B300010FB0EE007F0040010B145F4006508E05A
:102B400007F0080010B145F4805502E0204600F07F
:102B5000FFFA07F48070C8B14FF480702168886074
:102B600007F4007018B1204600F0F5FA0EE007F403
:102B7000806010B145F4005508E007F4006010B122
:102B800045F4804502E0204600F0E4FA07F4803086
:102B9000C8B14FF480302168886007F4003018B164
:102BA000204600F0DAFA0EE007F4802010B145F478
:102BB000004508E007F4002010B145F4803502E03C
:102BC000204600F0C9FA06F0080038B10AF01000FB
:102BD00020B145F4007510202168C86006F004009B
:102BE00040B10AF0080028B108202168C8602046DA
:102BF00000F00CFA06F0020038B12068C06800F05E
:102C0000030010B1204600F003FA06F0400038B18E
:102C10000BF0100020B145F4806510202168086198
:102C200006F0200040B10BF0080028B10820216810
:102C30000861204600F05AFA06F0100038B120680A
:102C4000006900F0030010B1204600F050FA06F4CD
:102C5000003040B109F0100028B110202168486010
:102C6000204600F045FA06F4803040B109F0080033
:102C700028B1082021684860204600F06FFA06F469
:102C8000004088B309F0040078B306F4807020B1E6
:102C900008F0010008B145F0010506F4007020B10C
:102CA00008F0020008B145F0020506F4806020B18A
:102CB00008F0040008B145F0040506F40060A0B176
:102CC00008F0700088B108F07000402817D006DCCA
:102CD00010280BD020280CD0302819D10CE0502817
:102CE00010D0602814D110E01DE019E045F008056F
:102CF0000FE045F010050CE045F0200509E045F037
:102D0000400506E045F0800503E045F4807500E0ED
:102D100000BF00BF2068806920F0700021688861D2
:102D20000420216848602DB1606A28436062204613
:102D3000FFF71CFEBDE8F09F70B504460CB90120FA
:102D400070BD94F8200010B9204600F0AFF820685C
:102D5000006820F002002168086000F015FE0546BA
:102D60000DE000F011FE401B0A2808D9606A40F40B
:102D700000306062052084F820000120E0E7206830
:102D8000406800F002000028EBD12068006840F0A5
:102D900001002168086000F0F7FD05460DE000F035
:102DA000F3FD401B0A2808D9606A40F400306062D5
:102DB000052084F820000120C2E72068406800F068
:102DC00001000028EBD0207E012806D12068006891
:102DD00040F080002168086005E02068006820F06D
:102DE000800021680860607E012806D120680068A4
:102DF00040F040002168086005E02068006820F08D
:102E0000400021680860A07E012806D12068006883
:102E100040F020002168086005E02068006820F08C
:102E2000200021680860E07E012806D12068006843
:102E300020F010002168086005E02068006840F07C
:102E4000100021680860207F012806D120680068F2
:102E500040F008002168086005E02068006820F064
:102E6000080021680860607F012806D1206800689A
:102E700040F004002168086005E02068006820F048
:102E8000040021680860D4E902010843216908436D
:102E9000616908436168491E08432168C8610020D0
:102EA0006062012084F82000002049E710B586B058
:102EB0000446142101A8FDF7A3FA4E492068884270
:102EC00041D14D480068401C4B49086008460068E5
:102ED00001280FD100BF002000904848006840F052
:102EE0000070464908600846006800F000700090D5
:102EF00000BF00BF00BF00200090404810380068AD
:102F000040F008003D49103908600846006800F0AC
:102F10000800009000BF00BF032001900220029033
:102F200000200390032004900920059001A9344853
:102F300000F01CFC00220621142001F079FA142074
:102F400001F066FA54E02F492068884250D100BF52
:102F5000002000902948006840F080602749086000
:102F60000846006800F08060009000BF00BF224863
:102F70000068401C204908600846006801280FD1FD
:102F800000BF002000901D48006840F000701B4901
:102F900008600846006800F00070009000BF00BFA5
:102FA00000BF0020009015481038006840F0020073
:102FB0001249103908600846006800F002000090CD
:102FC00000BF00BF6020019002200290002003900B
:102FD000032004900920059001A90B4800F0C6FBCE
:102FE00000220621402001F023FA402001F010FACF
:102FF00006B010BD006400400000002040380240D0
:10300000000C0240006800400004024070470000CD
:1030100010B58AB0044601AB03AA00212046FFF791
:10302000A6FC0398A0F20120072857D2DFE800F0A1
:103030000405060708090A0000BF00BF00BF00BF63
:1030400000BF00BF0398401E26490870084600785C
:1030500000EB8000244931F8100000B221490978C2
:1030600001EB8101204A02EB410108819DF8050036
:103070009DF8041040EA01201A49097801EB81010A
:1030800022F811009DF807009DF8061040EA012083
:1030900000B21449097801EB810102EB410148803B
:1030A0009DF809009DF8081040EA012000B20D4982
:1030B000097801EB810102EB410188809DF80A004B
:1030C0000849097801EB810102EB4101887105494A
:1030D0000978491CC8B20EF09DFB00E000BF00BF9C
:1030E0000AB010BDBC020020888F002070477047D6
:1030F000704770B5044694F82000012822D10220C0
:1031000084F820002068006820F001002168086031
:1031100000F03AFC05460DE000F036FC401B0A28A2
:1031200008D9606A40F400306062052084F820000D
:10313000012070BD2068406800F001000028EBD13C
:103140006062F6E7606A40F4002060620120F0E708
:10315000704770477047704770477047704710B5A9
:1031600004460CB9012010BD607920B900202071FF
:10317000204600F007F802206071012060710020F5
:10318000F1E7000008B50A4A016891420FD100BF7B
:10319000002100910749096841F48051054A1160F6
:1031A0001146096801F48051009100BF00BF08BDBD
:1031B0000030024030380240F8B50446002000904C
:1031C0008C4800684FF41651B0FBF1F7A56D2E68DE
:1031D00094F85C1008208840304098B1206800685E
:1031E00000F0040070B12068006820F0040021683D
:1031F000086094F85C1008208840A860606D40F07A
:103200000100606594F85C1001208840304068B18E
:103210002068406900F0800040B194F85C10012003
:103220008840A860606D40F00200606594F85C1012
:1032300004208840304068B12068006800F0020037
:1032400040B194F85C1004208840A860606D40F0A4
:103250000400606594F85C1010208840304078B31A
:103260002068006800F0080050B394F85C1010204B
:103270008840A8602068006800F4802080B1206841
:10328000006800F4002028B9206CC8B12046216CE9
:10329000884715E0A06C98B12046A16C88470FE0E4
:1032A0002068006800F4807028B92068006820F069
:1032B000080021680860206C10B12046216C884706
:1032C00094F85C10202088403040002865D02068A9
:1032D000006800F0100000285FD094F85C102020F7
:1032E0008840A86094F83500052828D12068006837
:1032F00020F01600216808602068406920F08000F6
:1033000021684861206C08B9A06C28B12068006869
:1033100020F008002168086094F85C103F20884085
:10332000A86000BF002084F8340000BF012084F8AA
:103330003500206D10B12046216D8847F8BD20680A
:10334000006800F4802080B12068006800F400204C
:1033500028B9606C10B12046616C88471DE0E06BB5
:10336000D8B12046E16B884717E02068006800F478
:10337000807068B92068006820F01000216808603B
:1033800000BF002084F8340000BF012084F835001D
:10339000E06B10B12046E16B8847606D38B3606D1B
:1033A00000F00100F0B1052084F8350020680068C5
:1033B00020F001002168086000BF0098401C0090C8
:1033C000B84200D905E02068006800F0010000283C
:1033D000F3D100BF00BF002084F8340000BF0120FB
:1033E00084F83500E06C10B12046E16C884700BFDE
:1033F000A4E70000A80000202DE9F04104460025C4
:1034000000F0C2FA074614B90120BDE8F081606AF5
:1034100000B100BF00BF002084F8340000BF0220CC
:1034200084F835002068006820F0010021680860F9
:103430000AE000F0A9FAC01B052805D92020606524
:10344000032084F83500E0E72068006800F0010000
:103450000028EED12068056821480540D4E9010123
:103460000843E16808432169084361690843A16989
:103470000843E1690843216A08430543606A042858
:1034800003D1D4E90B010843054320680560206897
:10349000456925F00705606A0543606A04280DD177
:1034A000A06A0543E06A48B12046FEF7E3FC28B174
:1034B00040206065012084F83500A6E7206845615A
:1034C0002046FEF7BDFC064694F85C103F2088407D
:1034D000B06000206065012084F83500002094E78A
:1034E0003F8010F070B5044600F04EFA06462546BF
:1034F000681C10B104480078054400BF00F044FA8D
:10350000801BA842FAD370BDA40000202DE9F04131
:1035100004460E460127002500BF2548007E0128ED
:1035200002D10220BDE8F08101202149087600BFC8
:103530004CF25030FEF728FE0746002F31D1401ED6
:103540003060206801280FD1207C6168FEF768FD9B
:103550004CF25030FEF718FE07461648006820F07F
:103560000400144908601AE0A56812E0217C28468E
:10357000FEF7ECFC4CF25030FEF706FE07460D4815
:10358000006820F0FA000B4908600FB1356005E0D3
:103590006D1CD4E902100844A842E7D800BFFEF72A
:1035A00003FD00BF00200249087600BF3846B9E796
:1035B000002C0020103C02400348006840F000400E
:1035C0000149086000207047103C02402DE9F0419D
:1035D00006460F4614461D464FF0010800BF1F481F
:1035E000007E012802D10220BDE8F08101201B49A4
:1035F000087600BF4CF25030FEF7C6FD8046B8F1A9
:10360000000F23D126B9E1B23846FEF721FD12E0C2
:10361000012E04D1A1B23846FEF742FD0BE0022E86
:1036200004D121463846FEF74FFD04E022462B46E2
:103630003846FEF71FFD4CF25030FEF7A5FD8046E0
:103640000748006820F001000549086000BF00201D
:103650000249087600BF4046C6E70000002C002063
:10366000103C024000200949096801F0004159B1AD
:103670000749064A0C3A1160064911600349096876
:1036800001F0004101B1012070470000103C0240F0
:1036900023016745AB89EFCD10B50446102C14D13A
:1036A00009200EF0B7F82248007840F001002049C8
:1036B00008702048007840F001001E4908701E483C
:1036C0000078A0B30FF0BCFE31E0202C0ED1082012
:1036D0000EF0A0F81948007840F001001749087072
:1036E0001548007818B30FF0ABFE20E0082C09D184
:1036F0000A200EF08FF81248007840F001001049BF
:10370000087014E0012C12D113F0D8FB01280ED060
:103710000C490D48006812F079FD0A48006830B184
:1037200020070A490860BFF34F8FBFF36F8F10BDAA
:10373000AA030020AB030020AD030020A903002052
:10374000AC030020200400208403002004ED00E0EE
:1037500010B5044604480068204020B102480460C7
:103760002046FFF799FF10BD143C0140F8B5024612
:103770000B460025002400200021DCE0012606FA8B
:1037800001F51E6806EA0504AC4273D15E68022E9C
:1037900002D05E68122E13D1CF0802F1200656F82F
:1037A00027004E07F70E0F26BE40B0434F07FF0E0F
:1037B0001E69BE403043CF0802F1200646F82700BC
:1037C00010684F000326BE40B0431E7906F0030682
:1037D0004F00BE40304310605E68012E08D05E6826
:1037E000022E05D05E68112E02D05E68122E13D113
:1037F00090684F000326BE40B0434F00DE68BE40D5
:1038000030439060506801268E40B0431E79C6F365
:1038100000168E4030435060D0684F000326BE40F3
:10382000B0434F009E68BE403043D0605E6806F0F3
:103830008056B6F1805F7DD100BF00260096404ED5
:10384000366846F480463E4F3E603E46366806F493
:103850008046009600BF00BF3A4E8F0856F82700FA
:103860008E07370F0F26BE40B043374EB24202D10B
:10387000002624E05EE0354EB24201D101261EE072
:10388000334EB24201D1022619E0324EB24201D18A
:10389000032614E0304EB24201D104260FE02F4E31
:1038A000B24201D105260AE02D4EB24201D10626D0
:1038B00005E02C4EB24201D1072600E008268F0712
:1038C0003F0FBE4030431F4E8F0846F82700264E5C
:1038D0003068A0435E6806F48036B6F5803F00D1BC
:1038E0002043214E3060361D3068A0435E6806F4E8
:1038F0000036B6F5003F00D120431B4E361D306028
:10390000361D3068A0435E6806F48016B6F5801F49
:1039100000D12043144E08363060361D3068A04375
:103920005E6806F40016B6F5001F00D120430E4E67
:103930000C363060491C1029FFF420AFF8BD0000A0
:1039400044380240083801400000024000040240B0
:1039500000080240000C0240001002400014024027
:1039600000180240001C0240003C0140024613695E
:103970000B400BB1012000E0002070470AB18161CB
:1039800001E00B0483617047014800687047000044
:103990009C00002070B504460CB9012070BD94F85D
:1039A0003D0028B9002084F83C00204600F0B2FB1E
:1039B000242084F83D002068006820F00100216880
:1039C000086001F01DFD05465C496068884206D824
:1039D0005B48854201D2012007E0002005E05948FC
:1039E000854201D2012000E00020012800D1D5E766
:1039F0005548B5FBF0F62068406820F03F003043A2
:103A0000216848604D496068884201D8701C07E011
:103A10004FF4967070434FF47A71B0FBF1F0401C94
:103A20002168096A21F03F0108432168086243497F
:103A30006068884214D8681E61684900B0FBF1F0E4
:103A4000401CC0F30B00042801D204203DE0681E96
:103A500061684900B0FBF1F0401CC0F30B0034E09A
:103A6000A06838B9681E616801EB4101B0FBF1F054
:103A7000401C0AE0681E616801EBC10202EB011103
:103A8000B0FBF1F0401C40F48040C0F30B0008B9DB
:103A900001201AE0A06848B9681E616801EB410185
:103AA000B0FBF1F0401CC0F30B000CE0681E616835
:103AB00001EBC10202EB0111B0FBF1F0401CC0F3BD
:103AC0000B0040F4804040F400402168C9694CF686
:103AD000FF72914308432168C861D4E90701084394
:103AE0002168096821F0C001084321680860D4E911
:103AF000031008432168896848F2FF329143084364
:103B000021688860D4E9050108432168C96821F06B
:103B1000FF0108432168C8602068006840F0010088
:103B20002168086000202064202084F83D000020E7
:103B3000206384F83E0000BF30E70000A08601004B
:103B400080841E0000093D0040420F002DE9F8432B
:103B50000446894616461F46DDF82080FFF714FF0D
:103B6000054694F83D0020287ED1192301225149B1
:103B70002046009503F080FA10B10220BDE8F883DA
:103B800000BF94F83C00012801D10220F6E7012093
:103B900084F83C0000BF2068006800F0010028B9EC
:103BA0002068006840F00100216808602068006813
:103BB00020F4006021680860212084F83D00102076
:103BC00084F83E000020206466626785608D208551
:103BD0003948E0622B4642464946204603F048F801
:103BE00008B10120CAE700BF0020009020684069AA
:103BF000009020688069009000BF00BF44E02A4622
:103C00004146204603F01DFB50B1206C042805D12D
:103C10002068006840F40070216808600120ADE76A
:103C2000606A007821680861606A401C6062608D8B
:103C3000401E6085208D401E208520684069C0F3AD
:103C4000800070B1208D60B1606A007821680861E1
:103C5000606A401C6062608D401E6085208D401E41
:103C600020852A46414600E022E0204603F0D6F9AE
:103C700050B1206C042805D12068006840F4007021
:103C800021680860012079E7208D0028B7D12068DD
:103C9000006840F4007021680860202084F83D002E
:103CA000002084F83E0000BF84F83C0000BF65E7B8
:103CB000022063E7020010000000FFFF2DE9FC5F17
:103CC00004460F4690469946DDE90CAB0E9EFFF781
:103CD0005BFE054694F83D00202870D1192301228F
:103CE000B0492046009503F0C7F910B10220BDE8A5
:103CF000FC9F00BF94F83C00012801D10220F6E7A8
:103D0000012084F83C0000BF2068006800F001003A
:103D100028B92068006840F0010021680860206828
:103D2000006820F4006021680860222084F83D00CB
:103D3000402084F83E0000202064C4F824A0A4F8A9
:103D40002AB0608D20859848E0624B46424639464D
:103D50002046CDE9006502F0E1FF08B10120C6E789
:103D6000208D88B900BF0020019020684069019033
:103D700020688069019000BF00BF2068006840F49F
:103D800000702168086040E0208D012818D120686B
:103D9000006820F480602168086000BF0020019066
:103DA00020684069019020688069019000BF00BFD1
:103DB0002068006840F400702168086025E0EFE0AA
:103DC000208D022816D12068006820F480602168C8
:103DD00008602068006840F400602168086000BF47
:103DE000002001902068406901902068806901905E
:103DF00000BF0AE000BF00200190206840690190E8
:103E000020688069019000BF00BFBAE0208D0328C0
:103E10007ED8208D012815D12A463146204603F050
:103E2000D0F908B1012062E720680069616A087072
:103E3000606A401C6062208D401E2085608D401E9F
:103E400060859EE0208D02282AD133460022574902
:103E50002046009503F010F908B1012047E72068DB
:103E6000006840F400702168086020680069616A99
:103E70000870606A401C6062208D401E2085608D45
:103E8000401E608520680069616A0870606A401C95
:103E90006062208D401E2085608D401E608570E030
:103EA0003346002241492046009503F0E5F808B169
:103EB00001201CE72068006820F480602168086009
:103EC00020680069616A0870606A401C6062208D29
:103ED000401E2085608D401E608533460022334998
:103EE0002046009503F0C8F808B10120FFE62068DD
:103EF000006840F400702168086020680069616A09
:103F00000870606A401C6062208D401E208500E0C1
:103F100010E0608D401E608520680069616A08704D
:103F2000606A401C6062208D401E2085608D401EAE
:103F3000608526E02A463146204603F042F908B162
:103F40000120D4E620680069616A0870606A401C3C
:103F50006062208D401E2085608D401E6085206837
:103F60004069C0F3800060B120680069616A087030
:103F7000606A401C6062208D401E2085608D401E5E
:103F80006085208D00287FF441AF202084F83D001B
:103F9000002084F83E0000BF84F83C0000BFA6E685
:103FA0000220A4E6020010000000FFFF0400010050
:103FB0002DE9FC5F04460F4690469946DDE90CABBF
:103FC0000E9EFFF7E1FC054694F83D0020287DD1C8
:103FD000192301224D492046009503F04DF810B1F8
:103FE0000220BDE8FC9F00BF94F83C00012801D1ED
:103FF0000220F6E7012084F83C0000BF206800683A
:1040000000F0010028B92068006840F00100216834
:1040100008602068006820F40060216808602120A2
:1040200084F83D00402084F83E0000202064C4F85D
:1040300024A0A4F82AB0608D20853548E0624B4664
:10404000424639462046CDE9006502F003FF08B13B
:104050000120C6E731E02A463146204603F0F1F858
:1040600050B1206C042805D12068006840F400702D
:10407000216808600120B4E7606A0078216808615F
:10408000606A401C6062208D401E2085608D401E4D
:10409000608520684069C0F3800070B1208D60B1F8
:1040A000606A007821680861606A401C6062208D47
:1040B000401E2085608D401E6085208D0028CAD15D
:1040C0002A463146204602F0A9FF00E01CE050B12C
:1040D000206C042805D12068006840F40070216835
:1040E000086001207DE72068006840F400702168C6
:1040F0000860202084F83D00002084F83E0000BFC6
:1041000084F83C0000BF6CE702206AE70200100060
:104110000000FFFF10B586B00446142101A8FCF78B
:104120006FF973492068884230D100BF00200090A9
:104130007048006840F002006E4908600846006858
:1041400000F00200009000BF00BF4FF440700190EB
:104150001220029001200390032004900420059077
:1041600001A96548FFF702FB00BF002000906148ED
:104170001030006840F400105E49103108600846B5
:10418000006800F40010009000BFAFE05B492068B9
:10419000884259D100BF002000905648006840F086
:1041A0002000544908600846006800F02000009094
:1041B00000BF00BF03200190122002900120039055
:1041C000032004900420059001A94D48FFF7CEFA82
:1041D00000BF0020009047481030006840F4800085
:1041E0004449103108600846006800F480000090DF
:1041F00000BF00BF4348444908604FF0606048601A
:104200004021414881600021C1604FF4806101611B
:10421000002141618161C1614FF4003101620021DF
:104220004162FFF7E9F808B1FDF78EFE00BF36489E
:104230006063846300BF35480068406840F40060F4
:1042400032490968486051E03149206888424DD1BF
:1042500000BF002000902748006840F00400254976
:1042600008600846006800F00400009000BF00BF2E
:1042700000BF002000900846006840F00100086080
:104280000846006800F00100009000BF00BF48151C
:10429000019012200290012003900320049004203A
:1042A000059001A91B48FFF761FA4FF48070019057
:1042B0001220029001200390032004900420059016
:1042C00001A91548FFF752FA00BF002000900948E5
:1042D0001030006840F400000649103108600846BC
:1042E000006800F40000009000BF00BF06B010BDE1
:1042F00000540040303802400004024000580040A2
:1043000000140240B86002409C0D0020F40C002014
:10431000005C0040000802400000024003480068C2
:104320000349097808440149086070479C0000204F
:10433000A400002010B50D48006840F400700B493F
:1043400008600846006840F480600860084600681D
:1043500040F480700860032000F0A8F80F2000F0FF
:1043600007F800F02BF8002010BD0000003C0240D0
:1043700070B504460E4800784FF47A71B1FBF0F046
:104380000C490968B1FBF0F5284601F0E0FD08B1E1
:10439000012070BD102C07D200222146501E00F0D3
:1043A00047F80548046001E00120F2E70020F0E74B
:1043B000A4000020A8000020A000002008B500BF35
:1043C000002000901148006840F480400F490860C8
:1043D0000846006800F48040009000BF00BF00BFA6
:1043E00000200090081F006840F08050091F0860FE
:1043F0000846006800F08050009000BF00BF002217
:104400000F21901E00F014F808BD0000443802404F
:1044100001460846002809DB00F01F0301229A40EC
:1044200043099B0003F1E023C3F8002100BF70475C
:104430002DE9F05F80460D46164600270AF078F910
:10444000074639462A46334601F00700C0F1070AFD
:10445000BAF1040F02D94FF0040A01E0C0F1070AD3
:10446000D14600F1040ABAF1070F02D24FF0000A58
:1044700001E0A0F1030AD4464FF0010A0AFA09FA52
:10448000AAF1010A0AEA020A0AFA0CFA4FF0010B31
:104490000BFA0CFBABF1010B0BEA030B4AEA0B0422
:1044A000214640460AF04CF9BDE8F09F00BF00F0FD
:1044B0000702064B19684FF6FF031940044B0B43E4
:1044C00043EA0221014B196000BF70470CED00E088
:1044D0000000FA05704702461068416200207047EC
:1044E000F0B5034615461868446A21B944EA054008
:1044F0001E68B06219E01868806A04EB104400225C
:1045000008E0186800F5827050F8220004EB1044AF
:10451000501CC2B2481E9042F3D844EA05471868BE
:1045200000F582704E1E40F826700020F0BD10B5D8
:104530000446D4F8040408F08DFD10BD70B504469F
:104540000D46C5EBC50304F13C0101EB8301CA68CC
:104550002946D4F8040408F0AAFC70BD70B50446DE
:104560000D46C5EBC50304F5FE7101EB8301CA6876
:104570002946D4F8040408F01AFD70BD10B50446AD
:10458000D4F8040408F069FD10BD70B504460E4669
:1045900006F0800080280AD106F00F00C0EBC001B1
:1045A00004F13C0000EB81050120687009E006F091
:1045B0000F00C0EBC00104F5FE7000EB8105002088
:1045C000687006F00F00287000BF94F8BC03012843
:1045D00001D1022070BD012084F8BC0300BF294630
:1045E000206809F035FA00BF002084F8BC0300BF42
:1045F00000BFEFE770B504460E4606F00F00616895
:10460000884201D9012070BD06F0800080280AD1BF
:1046100006F00F00C0EBC00104F13C0000EB810587
:104620000120687009E006F00F00C0EBC00104F53E
:10463000FE7000EB8105002068700020A87006F075
:104640000F00287000BF94F8BC03012801D102209C
:10465000D9E7012084F8BC0300BF2946206809F08F
:104660009FFC00BF002084F8BC0300BF00BFCAE766
:10467000024601F00F00C0EBC00302F5FE7000EB34
:104680008300806970472DE9F04705460E46904645
:104690001F464FF0000906F0800080280AD106F07E
:1046A0000F00C0EBC00105F13C0000EB81040120CC
:1046B000607009E006F00F00C0EBC00105F5FE7068
:1046C00000EB81040020607006F00F002070C4F839
:1046D0000880E770607808B12078E080022F01D16F
:1046E0000020207100BF95F8BC03012802D10220F0
:1046F000BDE8F087012085F8BC0300BF214628688B
:1047000009F0B2F800BF002085F8BC0300BF48469E
:10471000EEE72DE9F04104460E461746984606F0AE
:104720000F00C0EBC00104F5FE7000EB8105EF60E7
:10473000C5F814800020A861687006F00F0028708A
:104740002069012800D12F6106F00F0028B9227CD2
:104750002946206809F000FB04E0227C29462068F5
:1047600009F0B2FC0020BDE8F08170B504460D46AA
:1047700005F00F006168884201D9012070BD05F085
:10478000800080280AD105F00F00C0EBC00104F1C1
:104790003C0000EB81060120707007E0C5EBC5010D
:1047A00004F5FE7000EB8106002070700120B070EF
:1047B00005F00F00307000BF94F8BC03012801D150
:1047C0000220DBE7012084F8BC0300BF31462068EB
:1047D00009F02DFC05F00F0028B9217C04F5717259
:1047E000206809F0A5FB00BF002084F8BC0300BFCF
:1047F00000BFC3E72DE9F04104460E461746984630
:1048000006F00F00C0EBC00104F13C0000EB810595
:10481000EF60C5F814800020A8610120687006F0E0
:104820000F0028702069012800D12F6106F00F00C9
:1048300028B9227C2946206809F08EFA04E0227CFF
:104840002946206809F040FC0020BDE8F0812DE9F0
:10485000FE4F044620680290029E206809F01FFE69
:1048600000287DD1206809F059FE08B9BDE8FE8F07
:10487000206809F053FE00F00200022805D12068EC
:10488000406900F0020021684861206809F046FE96
:1048900000F40020B0F5002F58D10025206809F061
:1048A0000DFE82464FE00AF00100002848D0E9B230
:1048B000206809F026FE804608F0010048B1012179
:1048C00006F5306000EB451081602946204603F074
:1048D000BFFF08F00800082809D12946204603F048
:1048E00071FF082106F5306000EB4510816008F08B
:1048F0001000102805D1102106F5306000EB45109E
:10490000816008F0200020280ED12069012805D1FF
:1049100004F571720121206809F00AFB202106F5D7
:10492000306000EB4510816008F40050B0F5005F86
:1049300006D14FF4005106F5306000EB4510816060
:104940006D1C4FEA5A0ABAF1000FACD1206809F089
:10495000E5FD00F48020B0F5802F7ED1206800E0D6
:1049600012E209F0A1FD8246002586E00AF001006E
:1049700000287FD0E9B2206809F0AAFD804608F03F
:104980000100E8B305F00F0101208840019040F6D6
:1049900034008159019821EA000040F63401885121
:1049A000012106F5106000EB4510816020690128A7
:1049B00015D1C5EBC50104F13C0000EB8100C5EB4E
:1049C000C502C16804F13C0000EB8200806801442C
:1049D000C5EBC50204F13C0000EB8200C160E9B206
:1049E0002046FFF7ABFD2069012810D145B9C5EB82
:1049F000C50104F13C0000EB8100406900B900E012
:104A000005E004F571720121206809F091FA08F0BF
:104A10000800082805D1082106F5106000EB4510B4
:104A2000816008F01000102805D1102106F51060F3
:104A300000EB4510816008F04000402805D140217E
:104A400006F5106000EB4510816008F002000228B6
:104A500008D1022106F5106001E012E00AE000EB47
:104A60004510816008F08000802803D12946204647
:104A700003F0AEFF6D1C4FEA5A0ABAF1000F7FF443
:104A800075AF206809F04AFD00F00040B0F1004F1A
:104A90001CD140F60400805920F0010140F60400CA
:104AA000815194F8F403012807D1002084F8F4031D
:104AB00000212046FFF70EFD02E0204600F098FAA4
:104AC0002068406900F0004021684861206809F0D2
:104AD00025FD00F40060B0F5006F0ED140F608002F
:104AE000805900F0010010B1204600F0D9FA20688A
:104AF000406900F4006021684861206809F00EFDFB
:104B000000F48050B0F5805F72D140F60400805907
:104B100020F0010140F6040081511021206809F0C5
:104B200093FC002726E04FF67F3106F5106000EB7E
:104B30004710816006F5106000EB4710006820F414
:104B4000001106F5106000EB471001604FF67F3151
:104B500006F5306000EB4710816006F5306000EB31
:104B60004710006820F4001106F5306000EB471094
:104B700001607F1C6068B842D5D840F61C0080599F
:104B800040F0011140F61C008151206B70B1D6F845
:104B9000840840F00B01C6F8841840F644008059A0
:104BA00040F00B0140F6440081510FE040F6140044
:104BB000805942F22B01084340F614018851081F26
:104BC000805940F00B014FF401608151D6F8000884
:104BD00020F4FE60C6F80008217C04F5717220689C
:104BE00009F0A6F92068406900F480502168486106
:104BF000206809F093FC00F40050B0F5005F17D175
:104C0000206808F099FE206809F036FCE06000F0AA
:104C1000F1FB0090227B2068009909F0CFFC204630
:104C200000F0CEF92068406900F400502168486126
:104C3000206809F073FC00F01000102846D12068AD
:104C4000806920F01000216888610298D0F82090D7
:104C500009F00F00C0EBC00104F5FE7000EB810B02
:104C6000C9F3434002281AD147F6F07009EA000060
:104C700030B3C9F30A12DBF80C10029809F053FCA8
:104C8000C9F30A11DBF80C000844CBF80C00C9F397
:104C90000A11DBF818000844CBF8180010E0C9F33B
:104CA000434006280CD1082204F57171029809F0DE
:104CB0003AFCC9F30A11DBF818000844CBF81800D5
:104CC0002068806940F0100021688861206809F040
:104CD00025FC00F00800082808D1204600F08FF9D4
:104CE0002068406900F0080021684861206809F0E8
:104CF00015FC00F48010B0F5801F0AD1002529466C
:104D0000204600F043F82068406900F480102168D4
:104D10004861206809F002FC00F40010B0F5001FA3
:104D20000AD100252946204600F039F8206840695C
:104D300000F4001021684861206809F0EFFB00F0E2
:104D40008040B0F1804F08D12046FFF7F0FB20688B
:104D5000406900F0804021684861206809F0DEFB6E
:104D600000F0040004280FD12068D0F8049009F066
:104D70000400042802D12046FFF700FC20684068A8
:104D800040EA09002168486000BF6FE570B504463D
:104D90000D462946D4F8040408F0C6F970BD70B574
:104DA00004460D462946D4F8040408F0C0F970BD45
:104DB00070B58AB0044614B901200AB070BD2668E7
:104DC00094F8BD0328B9002084F8BC03204600F005
:104DD000A3F8032084F8BD03F06B00F4807008B9D9
:104DE00000212161206808F0AFFF282204F11001A2
:104DF0006846FBF7ECFA94E80F0008F0C1FD20B11B
:104E0000022084F8BD030120D7E70021206809F0C3
:104E10009BFB002531E00121C5EBC50204F13C00FC
:104E200000EB82004170C5EBC50104F13C0000F8C5
:104E30002150C5EBC50100EB8100C5800021C5EB09
:104E4000C50204F13C0000EB8200C170C5EBC50255
:104E500004F13C0000EB82008160C5EBC50204F167
:104E60003C0000EB8200C160C5EBC50204F13C00D0
:104E700000EB82004161681CC5B26068A842CAD8D4
:104E800000252AE00021C5EBC50204F5FE7000EB09
:104E900082004170C5EBC50104F5FE7000F8215099
:104EA0000021C5EBC50200EB8200C170C5EBC50255
:104EB00004F5FE7000EB82008160C5EBC50204F5CD
:104EC000FE7000EB8200C160C5EBC50204F5FE7008
:104ED00000EB82004161681CC5B26068A842D1D86D
:104EE000282204F110016846FBF771FA94E80F00DC
:104EF00008F030FE20B1022084F8BD0301205CE7F9
:104F0000002084F83800012084F8BD03206808F0F0
:104F100011FE002051E7000010B586B004461421B0
:104F200001A8FBF76DFA2068B0F1A04F42D100BF95
:104F3000002000902048006840F001001E490860F1
:104F40000846006800F00100009000BF00BF4FF469
:104F5000C050019002200290002003900320049092
:104F60000A20059001A91548FEF700FC00BF124871
:104F7000001D006840F080000F49091D086000BF57
:104F8000002000900C481430006840F480400A492A
:104F9000143108600846006800F48040009000BFAB
:104FA00000BF00BF002205214320FFF741FA432044
:104FB000FFF72EFA06B010BD303802400000024064
:104FC00070B504460125E06808B9002506E0E068F0
:104FD000022801D1012501E0FCF7B6FF2946D4F8EB
:104FE000040408F01DF9D4F8040408F0D3F870BDE7
:104FF00010B50446D4F8040408F0FAF810BD10B552
:105000000446D4F8040408F0FAF810BD70B504465C
:105010000D4600BF94F8BC03012801D1022070BDE9
:10502000012084F8BC0300BF84F83850294620686A
:1050300009F0A5FA00BF002084F8BC0300BF00BF40
:10504000EDE710B5044604F57171D4F8040408F0D6
:10505000FEF810BD70B50446256800BF94F8BC0387
:10506000012801D1022070BD012084F8BC0300BFDB
:10507000A06A012806D1A069012803D0A86B40F4DA
:105080008030A863206808F045FD206809F0BEF96B
:1050900000BF002084F8BC0300BF00BFE3E70000AE
:1050A00010B50446D4F8040408F02AF92068D0F8B2
:1050B000000E40F001002168C1F8000E206A28B1FE
:1050C0000348006840F006000149086010BD000078
:1050D00010ED00E0F8B5044600250026207800F029
:1050E000010020B9207800F0040004282FD100200E
:1050F0005B498866FEF748FC054606E0FEF744FC7F
:10510000401B022801D90320F8BD56480068C0F3AF
:10511000C0600028F2D160688101207A41EA007005
:1051200050498431086001204D498866FEF72CFC07
:10513000054606E0FEF728FC401B022801D90320A3
:10514000E2E748480068C0F3C0600028F2D0207849
:1051500000F0020002287DD100BF002000904148ED
:105160004030006840F080503E49403108600846B9
:10517000006800F08050009000BF00BF3A4800680F
:1051800040F4807038490860FEF7FEFB054606E0F3
:10519000FEF7FAFB401B022801D90320B4E732488E
:1051A000006800F480700028F2D02E48703000684B
:1051B00000F440764EB3A08900F44070B04224D091
:1051C00028487030006820F44076012027490860A4
:1051D00000200860234870300660006800F001007D
:1051E00098B1FEF7D1FB054608E0FEF7CDFB401B6A
:1051F00041F28831884201D9032085E7194870308F
:105200000068C0F340000028EFD000BFA08900F480
:105210004070B0F5407F0CD112480830006820F48F
:10522000F810134AE168114008430E49083108603C
:1052300007E00C480830006820F4F81009490831EC
:105240000860084870300068A189C1F30B01084369
:10525000044900E002E07031086000BF002053E71D
:10526000000047420038024000700040400E4742B4
:10527000FFFCFF0F70B504460D460CB9012070BD50
:105280005848006800F00F00A84209D255490D7037
:105290000846006800F00F00A84201D00120EEE7A8
:1052A000207800F0020002281DD1207800F00400D0
:1052B000042805D14C48006840F4E0504A49086091
:1052C000207800F00800082805D14748006840F41D
:1052D0006040454908604448006820F0F000A1683B
:1052E000084341490860207800F00100A8B36068D5
:1052F000012807D13C4808380068C0F34040B8B9DD
:105300000120BCE76068022802D06068032807D14A
:10531000354808380068C0F3406048B90120AEE75E
:10532000314808380068C0F3400008B90120A6E7FA
:105330002D48006820F00300616808432A4908608E
:10534000FEF722FB064609E0FEF71EFB801B41F23A
:105350008831884202D9032091E707E0224800689B
:1053600000F00C006168B0EB810FEDD11D480068C2
:1053700000F00F00A84209D91A490D7008460068CC
:1053800000F00F00A84201D0012078E7207800F05B
:105390000400042807D11448006820F4E050E168B4
:1053A000084311490860207800F00800082808D157
:1053B0000D48006820F46040216940EAC1000A49B4
:1053C000086000F03DF808490968C1F30311074A75
:1053D000515CC840064908600F20FEF7C9FF002055
:1053E0004DE70000003C024008380240E874010824
:1053F000A80000200148006870470000A8000020B5
:1054000000B5FFF7F7FF04490968C1F38221034A99
:10541000515CC84000BD000008380240F874010823
:1054200000B5FFF7E7FF04490968C1F34231034AB9
:10543000515CC84000BD000008380240F874010803
:105440002DE9F047002400250026A14625480068E4
:1054500000F00C0020B1042805D008283AD105E05E
:10546000DFF8849039E0DFF8849036E01D48001FB3
:10547000006800F03F041B48001F006800F4800033
:1054800078B11A481749091F0968C1F38811A0FBB0
:1054900001700146224600233846FAF767FF0546A9
:1054A0000EE011480F49091F0968C1F38811A0FBDC
:1054B00001700146224600233846FAF757FF054699
:1054C0000848001F0068C0F30140401C4600B5FBBF
:1054D000F6F902E0DFF8109000BF00BF4846BDE8D3
:1054E000F0870000083802400024F400001BB700D9
:1054F000F8B504460CB90120F8BD207800F0010091
:10550000002874D0F948006800F00C0004280DD081
:10551000F648006800F00C00082813D1F348001F7B
:10552000006800F48000B0F5800F0BD1EF48083818
:105530000068C0F34040002859D06068002856D168
:105540000120D9E700BF6068B0F5803F08D1E74887
:105550000838006840F48030E449083908601EE0EB
:105560006068B0F5A02F0DD1E0480838006840F41D
:105570008020DE49083908600846006840F4803021
:1055800008600CE0D9480838006820F48030D7491A
:10559000083908600846006820F48020086000BFD1
:1055A000606890B1FEF7F0F9054606E0FEF7ECF909
:1055B000401B642801D903209EE7CC4808380068C6
:1055C000C0F340400028F1D011E0FEF7DDF90546B8
:1055D00006E0FEF7D9F9401B642801D903208BE7C8
:1055E000C24808380068C0F340400028F1D1207854
:1055F00000F0020002285FD1BC48006800F00C00F7
:1056000058B1BA48006800F00C0008281CD1B7480F
:10561000001F006800F48000B0B9B4480838006882
:10562000C0F3400020B1E068012801D0012063E709
:10563000AE480838006820F0F800216940EAC1004F
:10564000AA490839086037E0E06800B30120A8499A
:105650000860FEF799F9054606E0FEF795F9401B4C
:10566000022801D9032047E7A04808380068C0F3A2
:1056700040000028F1D09D480838006820F0F8006C
:10568000216940EAC10099490839086014E0002006
:1056900097490860FEF778F9054606E0FEF774F9C9
:1056A000401B022801D9032026E7904808380068EB
:1056B000C0F340000028F1D1207800F0080008284D
:1056C0002CD16069A8B101208A490860FEF75CF915
:1056D000054606E0FEF758F9401B022801D90320D1
:1056E0000AE782486C300068C0F340000028F1D01F
:1056F00014E000207F490860FEF746F9054606E001
:10570000FEF742F9401B022801D90320F4E677484E
:105710006C300068C0F340000028F1D1207800F020
:105720000400042870D1002670483830006800F06A
:10573000805090B900BF002000906C48383000685D
:1057400040F080506949383108600846006800F030
:105750008050009000BF00BF01266748006800F439
:105760008070B0B96448006840F480706249086095
:10577000FEF70AF9054606E0FEF706F9401B022887
:1057800001D90320B8E65C48006800F48070002866
:10579000F2D000BFA068012808D1544868300068E2
:1057A00040F001005149683108601DE0A0680528FB
:1057B0000DD14E486830006840F004004B49683114
:1057C00008600846006840F0010008600CE04748A7
:1057D0006830006820F001004449683108600846DC
:1057E000006820F00400086000BFA068A8B1FEF7C0
:1057F000CBF8054609E0FEF7C7F8401B41F28831B7
:10580000884202D9032077E626E0384868300068ED
:10581000C0F340000028EED013E0FEF7B5F80546CF
:1058200008E0FEF7B1F8401B41F28831884201D907
:10583000032061E62D4868300068C0F3400000286E
:10584000EFD1012E07D129483830006820F0805070
:1058500026493831086000BFA069B8B32348006802
:1058600000F00C0008285ED0A069022846D1002074
:105870001F490866FEF788F8054606E0FEF784F83B
:10588000401B022801D9032036E618480838006872
:10589000C0F340600028F1D1D4E907010843616AF0
:1058A00040EA81110122A06AC2EB500041EA0041A6
:1058B0002C20005D41EA00600C49091F08600120AE
:1058C0000B490866FEF760F8054607E02DE0FEF795
:1058D0005BF8401B022801D903200DE60348083875
:1058E0000068C0F340600028F1D01EE00838024094
:1058F00000004742800E47420070004000200C49E3
:105900000866FEF741F8054606E0FEF73DF8401B45
:10591000022801D90320EFE506480068C0F3406083
:105920000028F2D101E00120E6E50020E4E50000D6
:10593000000047420038024010B504460CB901206F
:1059400010BD607920B900202071204600F00EF8CB
:10595000022060712068006840F00400216808603F
:10596000012060710020A06000BFE9E708B50A4A85
:10597000016891420FD100BF0021009107490968D9
:1059800041F04001054A11601146096801F04001EB
:10599000009100BF00BF08BD000806503438024027
:1059A00010B504460CB9012010BD607F20B900205D
:1059B0002077204600F060F80220607700BFCA2000
:1059C0002168486253202168486200BF204603F0E6
:1059D000E5FB40B100BFFF202168486200BF042002
:1059E00060770120E0E7206880682249084021684C
:1059F0008860216960680843616908432168896893
:105A00000843216888602168E068086120680169AE
:105A1000208941EA0040216808612068C06820F0C0
:105A200080002168C8602068806800F0200060B9AC
:105A3000204600F02DF840B100BFFF2021684862E9
:105A400000BF042060770120AEE72068006C20F4DE
:105A50008020216808642068006CA16908432168DF
:105A6000086400BFFF202168486200BF0120607702
:105A7000002099E7BFFF8FFF034A0168914202D1DE
:105A80000121024A11607047002800403C0E474245
:105A900070B5044600252068C06820F0A000216889
:105AA000C860FDF771FF054607E0FDF76DFF401B7D
:105AB000B0F57A7F01D9032070BD2068C06800F07E
:105AC00020000028F1D00020F6E710B504460CB9FC
:105AD000012010BD606A00B900BF0021A16294F8E6
